{
  "contractName": "Splitter",
  "abi": [
    {
      "constant": true,
      "inputs": [
        {
          "name": "",
          "type": "address"
        }
      ],
      "name": "balances",
      "outputs": [
        {
          "name": "",
          "type": "uint256"
        }
      ],
      "payable": false,
      "stateMutability": "view",
      "type": "function"
    },
    {
      "constant": true,
      "inputs": [],
      "name": "value",
      "outputs": [
        {
          "name": "",
          "type": "uint256"
        }
      ],
      "payable": false,
      "stateMutability": "view",
      "type": "function"
    },
    {
      "constant": true,
      "inputs": [],
      "name": "owner",
      "outputs": [
        {
          "name": "",
          "type": "address"
        }
      ],
      "payable": false,
      "stateMutability": "view",
      "type": "function"
    },
    {
      "inputs": [],
      "payable": false,
      "stateMutability": "nonpayable",
      "type": "constructor"
    },
    {
      "constant": true,
      "inputs": [
        {
          "name": "addr",
          "type": "address"
        }
      ],
      "name": "getBalance",
      "outputs": [
        {
          "name": "",
          "type": "uint256"
        }
      ],
      "payable": false,
      "stateMutability": "view",
      "type": "function"
    },
    {
      "constant": false,
      "inputs": [
        {
          "name": "recipient1",
          "type": "address"
        },
        {
          "name": "recipient2",
          "type": "address"
        }
      ],
      "name": "splitBalance",
      "outputs": [
        {
          "name": "",
          "type": "bool"
        }
      ],
      "payable": true,
      "stateMutability": "payable",
      "type": "function"
    },
    {
      "constant": false,
      "inputs": [
        {
          "name": "amount",
          "type": "uint256"
        }
      ],
      "name": "withdrawFunds",
      "outputs": [],
      "payable": false,
      "stateMutability": "nonpayable",
      "type": "function"
    }
  ],
  "bytecode": "0x608060405234801561001057600080fd5b50336000806101000a81548173ffffffffffffffffffffffffffffffffffffffff021916908373ffffffffffffffffffffffffffffffffffffffff1602179055506103ca806100606000396000f300608060405260043610610078576000357c0100000000000000000000000000000000000000000000000000000000900463ffffffff168063155dd5ee1461007d57806327e235e3146100aa5780633fa4f245146101015780638da5cb5b1461012c578063f8b2cb4f14610183578063fed42cdc146101da575b600080fd5b34801561008957600080fd5b506100a860048036038101908080359060200190929190505050610248565b005b3480156100b657600080fd5b506100eb600480360381019080803573ffffffffffffffffffffffffffffffffffffffff16906020019092919050505061024b565b6040518082815260200191505060405180910390f35b34801561010d57600080fd5b50610116610263565b6040518082815260200191505060405180910390f35b34801561013857600080fd5b50610141610269565b604051808273ffffffffffffffffffffffffffffffffffffffff1673ffffffffffffffffffffffffffffffffffffffff16815260200191505060405180910390f35b34801561018f57600080fd5b506101c4600480360381019080803573ffffffffffffffffffffffffffffffffffffffff16906020019092919050505061028e565b6040518082815260200191505060405180910390f35b61022e600480360381019080803573ffffffffffffffffffffffffffffffffffffffff169060200190929190803573ffffffffffffffffffffffffffffffffffffffff1690602001909291905050506102d7565b604051808215151515815260200191505060405180910390f35b50565b60026020528060005260406000206000915090505481565b60015481565b6000809054906101000a900473ffffffffffffffffffffffffffffffffffffffff1681565b6000600260008373ffffffffffffffffffffffffffffffffffffffff1673ffffffffffffffffffffffffffffffffffffffff168152602001908152602001600020549050919050565b600080600034101515156102ea57600080fd5b6002348115156102f657fe5b04905080600260008673ffffffffffffffffffffffffffffffffffffffff1673ffffffffffffffffffffffffffffffffffffffff1681526020019081526020016000206000828254019250508190555080600260008573ffffffffffffffffffffffffffffffffffffffff1673ffffffffffffffffffffffffffffffffffffffff168152602001908152602001600020600082825401925050819055506001915050929150505600a165627a7a72305820e60a5ccd90b3c09521c011ccc805464e3b97d2e2ed5f649bb650da386f42fade0029",
  "source": "pragma solidity ^0.4.4;\n\n\ncontract Splitter {\n  address public owner;\n  uint public value;\n  mapping (address => uint) public balances;\n\n  function Splitter() public {\n    owner = msg.sender;\n  }\n\n  function getBalance(address addr) view returns(uint) {\n      return balances[addr];\n  }\n\n  function splitBalance(address recipient1, address recipient2) public payable returns (bool) {\n    require(msg.value >= 0);\n    uint halfAmount = msg.value / 2;\n\n    balances[recipient1] += halfAmount;\n    balances[recipient2] += halfAmount;\n\n    return true;\n  }\n\n  function withdrawFunds(uint amount) {\n\n  }\n}\n",
  "sourcePath": "/Users/randallkanna/Documents/code/eth/Splitter/contracts/Splitter.sol",
  "compiler": {
    "name": "solc",
    "version": "0.4.23+commit.124ca40d.Emscripten.clang"
  },
  "schemaVersion": "2.0.0",
  "updatedAt": "2018-05-30T02:50:14.379Z"
}